{
  "_format": "hh-sol-artifact-1",
  "contractName": "WavePortal",
  "sourceName": "contracts/WavePortal.sol",
  "abi": [
    {
      "inputs": [],
      "stateMutability": "payable",
      "type": "constructor"
    },
    {
      "anonymous": false,
      "inputs": [
        {
          "indexed": true,
          "internalType": "address",
          "name": "from",
          "type": "address"
        },
        {
          "indexed": false,
          "internalType": "uint256",
          "name": "timestamp",
          "type": "uint256"
        },
        {
          "indexed": false,
          "internalType": "string",
          "name": "message",
          "type": "string"
        }
      ],
      "name": "NewWave",
      "type": "event"
    },
    {
      "inputs": [],
      "name": "getAllWaves",
      "outputs": [
        {
          "components": [
            {
              "internalType": "address",
              "name": "waver",
              "type": "address"
            },
            {
              "internalType": "string",
              "name": "message",
              "type": "string"
            },
            {
              "internalType": "uint256",
              "name": "timestamp",
              "type": "uint256"
            }
          ],
          "internalType": "struct WavePortal.Wave[]",
          "name": "",
          "type": "tuple[]"
        }
      ],
      "stateMutability": "view",
      "type": "function"
    },
    {
      "inputs": [],
      "name": "getTotalWaves",
      "outputs": [
        {
          "internalType": "uint256",
          "name": "",
          "type": "uint256"
        }
      ],
      "stateMutability": "view",
      "type": "function"
    },
    {
      "inputs": [],
      "name": "removeWave",
      "outputs": [],
      "stateMutability": "nonpayable",
      "type": "function"
    },
    {
      "inputs": [
        {
          "internalType": "string",
          "name": "_message",
          "type": "string"
        }
      ],
      "name": "wave",
      "outputs": [],
      "stateMutability": "nonpayable",
      "type": "function"
    }
  ],
  "bytecode": "0x608060405262000033604051806060016040528060268152602001620011ff602691396200003960201b6200051d1760201c565b620001cd565b620000d98160405160240162000050919062000146565b6040516020818303038152906040527f41304fac000000000000000000000000000000000000000000000000000000007bffffffffffffffffffffffffffffffffffffffffffffffffffffffff19166020820180517bffffffffffffffffffffffffffffffffffffffffffffffffffffffff8381831617835250505050620000dc60201b60201c565b50565b60008151905060006a636f6e736f6c652e6c6f679050602083016000808483855afa5050505050565b600062000112826200016a565b6200011e818562000175565b93506200013081856020860162000186565b6200013b81620001bc565b840191505092915050565b6000602082019050818103600083015262000162818462000105565b905092915050565b600081519050919050565b600082825260208201905092915050565b60005b83811015620001a657808201518184015260208101905062000189565b83811115620001b6576000848401525b50505050565b6000601f19601f8301169050919050565b61102280620001dd6000396000f3fe608060405234801561001057600080fd5b506004361061004c5760003560e01c80630dabbc3314610051578063449d46c01461005b5780639a2cdc0814610077578063bd43a90814610095575b600080fd5b6100596100b3565b005b610075600480360381019061007091906108c1565b61010d565b005b61007f610381565b60405161008c9190610c30565b60405180910390f35b61009d6103cc565b6040516100aa9190610b07565b60405180910390f35b60016000808282546100c59190610d98565b9250508190555061010b6040518060400160405280601c81526020017f2573206a757374206c65667420796f752068616e67696e672e2e2e2e00000000815250336105b6565b565b600160008082825461011f9190610d42565b925050819055506101666040518060400160405280601481526020017f2573206a757374207361696420776173737570210000000000000000000000008152503383610652565b600160405180606001604052803373ffffffffffffffffffffffffffffffffffffffff16815260200183815260200142815250908060018154018082558091505060019003906000526020600020906003020160009091909190915060008201518160000160006101000a81548173ffffffffffffffffffffffffffffffffffffffff021916908373ffffffffffffffffffffffffffffffffffffffff16021790555060208201518160010190805190602001906102259291906107b6565b506040820151816002015550503373ffffffffffffffffffffffffffffffffffffffff167f5f7e16dc676677766a70e9c5628aa6c54ddb8b6e5188e2ae1e1f17f1ffbea716428360405161027a929190610c4b565b60405180910390a26000655af3107a40009050478111156102d0576040517f08c379a00000000000000000000000000000000000000000000000000000000081526004016102c790610bf0565b60405180910390fd5b60003373ffffffffffffffffffffffffffffffffffffffff16826040516102f690610af2565b60006040518083038185875af1925050503d8060008114610333576040519150601f19603f3d011682016040523d82523d6000602084013e610338565b606091505b505090508061037c576040517f08c379a000000000000000000000000000000000000000000000000000000000815260040161037390610c10565b60405180910390fd5b505050565b60006103c46040518060400160405280601681526020017f5765206861766520256420746f74616c207761766573000000000000000000008152506000546106f1565b600054905090565b60606001805480602002602001604051908101604052809291908181526020016000905b8282101561051457838290600052602060002090600302016040518060600160405290816000820160009054906101000a900473ffffffffffffffffffffffffffffffffffffffff1673ffffffffffffffffffffffffffffffffffffffff1673ffffffffffffffffffffffffffffffffffffffff16815260200160018201805461047990610e4a565b80601f01602080910402602001604051908101604052809291908181526020018280546104a590610e4a565b80156104f25780601f106104c7576101008083540402835291602001916104f2565b820191906000526020600020905b8154815290600101906020018083116104d557829003601f168201915b50505050508152602001600282015481525050815260200190600101906103f0565b50505050905090565b6105b3816040516024016105319190610b29565b6040516020818303038152906040527f41304fac000000000000000000000000000000000000000000000000000000007bffffffffffffffffffffffffffffffffffffffffffffffffffffffff19166020820180517bffffffffffffffffffffffffffffffffffffffffffffffffffffffff838183161783525050505061078d565b50565b61064e82826040516024016105cc929190610b4b565b6040516020818303038152906040527f319af333000000000000000000000000000000000000000000000000000000007bffffffffffffffffffffffffffffffffffffffffffffffffffffffff19166020820180517bffffffffffffffffffffffffffffffffffffffffffffffffffffffff838183161783525050505061078d565b5050565b6106ec83838360405160240161066a93929190610b7b565b6040516020818303038152906040527fe0e9ad4f000000000000000000000000000000000000000000000000000000007bffffffffffffffffffffffffffffffffffffffffffffffffffffffff19166020820180517bffffffffffffffffffffffffffffffffffffffffffffffffffffffff838183161783525050505061078d565b505050565b6107898282604051602401610707929190610bc0565b6040516020818303038152906040527f9710a9d0000000000000000000000000000000000000000000000000000000007bffffffffffffffffffffffffffffffffffffffffffffffffffffffff19166020820180517bffffffffffffffffffffffffffffffffffffffffffffffffffffffff838183161783525050505061078d565b5050565b60008151905060006a636f6e736f6c652e6c6f679050602083016000808483855afa5050505050565b8280546107c290610e4a565b90600052602060002090601f0160209004810192826107e4576000855561082b565b82601f106107fd57805160ff191683800117855561082b565b8280016001018555821561082b579182015b8281111561082a57825182559160200191906001019061080f565b5b509050610838919061083c565b5090565b5b8082111561085557600081600090555060010161083d565b5090565b600061086c61086784610ca0565b610c7b565b90508281526020810184848401111561088457600080fd5b61088f848285610e08565b509392505050565b600082601f8301126108a857600080fd5b81356108b8848260208601610859565b91505092915050565b6000602082840312156108d357600080fd5b600082013567ffffffffffffffff8111156108ed57600080fd5b6108f984828501610897565b91505092915050565b600061090e8383610a84565b905092915050565b61091f81610dcc565b82525050565b61092e81610dcc565b82525050565b600061093f82610ce1565b6109498185610d04565b93508360208202850161095b85610cd1565b8060005b8581101561099757848403895281516109788582610902565b945061098383610cf7565b925060208a0199505060018101905061095f565b50829750879550505050505092915050565b60006109b482610cec565b6109be8185610d20565b93506109ce818560208601610e17565b6109d781610f3a565b840191505092915050565b60006109ed82610cec565b6109f78185610d31565b9350610a07818560208601610e17565b610a1081610f3a565b840191505092915050565b6000610a28600083610d15565b9150610a3382610f4b565b600082019050919050565b6000610a4b602f83610d31565b9150610a5682610f4e565b604082019050919050565b6000610a6e602883610d31565b9150610a7982610f9d565b604082019050919050565b6000606083016000830151610a9c6000860182610916565b5060208301518482036020860152610ab482826109a9565b9150506040830151610ac96040860182610ad4565b508091505092915050565b610add81610dfe565b82525050565b610aec81610dfe565b82525050565b6000610afd82610a1b565b9150819050919050565b60006020820190508181036000830152610b218184610934565b905092915050565b60006020820190508181036000830152610b4381846109e2565b905092915050565b60006040820190508181036000830152610b6581856109e2565b9050610b746020830184610925565b9392505050565b60006060820190508181036000830152610b9581866109e2565b9050610ba46020830185610925565b8181036040830152610bb681846109e2565b9050949350505050565b60006040820190508181036000830152610bda81856109e2565b9050610be96020830184610ae3565b9392505050565b60006020820190508181036000830152610c0981610a3e565b9050919050565b60006020820190508181036000830152610c2981610a61565b9050919050565b6000602082019050610c456000830184610ae3565b92915050565b6000604082019050610c606000830185610ae3565b8181036020830152610c7281846109e2565b90509392505050565b6000610c85610c96565b9050610c918282610e7c565b919050565b6000604051905090565b600067ffffffffffffffff821115610cbb57610cba610f0b565b5b610cc482610f3a565b9050602081019050919050565b6000819050602082019050919050565b600081519050919050565b600081519050919050565b6000602082019050919050565b600082825260208201905092915050565b600081905092915050565b600082825260208201905092915050565b600082825260208201905092915050565b6000610d4d82610dfe565b9150610d5883610dfe565b9250827fffffffffffffffffffffffffffffffffffffffffffffffffffffffffffffffff03821115610d8d57610d8c610ead565b5b828201905092915050565b6000610da382610dfe565b9150610dae83610dfe565b925082821015610dc157610dc0610ead565b5b828203905092915050565b6000610dd782610dde565b9050919050565b600073ffffffffffffffffffffffffffffffffffffffff82169050919050565b6000819050919050565b82818337600083830152505050565b60005b83811015610e35578082015181840152602081019050610e1a565b83811115610e44576000848401525b50505050565b60006002820490506001821680610e6257607f821691505b60208210811415610e7657610e75610edc565b5b50919050565b610e8582610f3a565b810181811067ffffffffffffffff82111715610ea457610ea3610f0b565b5b80604052505050565b7f4e487b7100000000000000000000000000000000000000000000000000000000600052601160045260246000fd5b7f4e487b7100000000000000000000000000000000000000000000000000000000600052602260045260246000fd5b7f4e487b7100000000000000000000000000000000000000000000000000000000600052604160045260246000fd5b6000601f19601f8301169050919050565b50565b7f547279696e6720746f20776964746864726177206d6f7265207468616e20746860008201527f6973206163636f756e74206861732e0000000000000000000000000000000000602082015250565b7f4661696c656420746f20776964746864726177206d6f6e65792066726f6d206360008201527f6f6e74726163742e00000000000000000000000000000000000000000000000060208201525056fea2646970667358221220a0595e2159e2b6d6fddb49b7cc3f313e2da17c4d97c0e6bbfd68d9e1e104230e64736f6c634300080400337965727272727272727220776520676f742074686520636f6e747261637473207369676e6564",
  "linkReferences": {},
  "deployedLinkReferences": {}
}